{
  "contractName": "MyLottery",
  "abi": [
    {
      "inputs": [
        {
          "internalType": "uint256",
          "name": "_startTime",
          "type": "uint256"
        },
        {
          "internalType": "uint256",
          "name": "_endTime",
          "type": "uint256"
        }
      ],
      "stateMutability": "nonpayable",
      "type": "constructor"
    },
    {
      "inputs": [],
      "name": "manager",
      "outputs": [
        {
          "internalType": "address",
          "name": "",
          "type": "address"
        }
      ],
      "stateMutability": "view",
      "type": "function",
      "constant": true
    },
    {
      "inputs": [
        {
          "internalType": "uint256",
          "name": "_startTime",
          "type": "uint256"
        },
        {
          "internalType": "uint256",
          "name": "_endTime",
          "type": "uint256"
        }
      ],
      "name": "startLottery",
      "outputs": [],
      "stateMutability": "nonpayable",
      "type": "function"
    },
    {
      "inputs": [
        {
          "internalType": "uint16",
          "name": "_userGues",
          "type": "uint16"
        }
      ],
      "name": "getLottery",
      "outputs": [],
      "stateMutability": "payable",
      "type": "function",
      "payable": true
    },
    {
      "inputs": [],
      "name": "getBalance",
      "outputs": [
        {
          "internalType": "uint256",
          "name": "",
          "type": "uint256"
        }
      ],
      "stateMutability": "view",
      "type": "function",
      "constant": true
    },
    {
      "inputs": [],
      "name": "pickWinner",
      "outputs": [
        {
          "internalType": "address",
          "name": "",
          "type": "address"
        }
      ],
      "stateMutability": "nonpayable",
      "type": "function"
    }
  ],
  "bytecode": "0x60806040523480156200001157600080fd5b5060405162001054380380620010548339818101604052810190620000379190620000e8565b33600160006101000a81548173ffffffffffffffffffffffffffffffffffffffff021916908373ffffffffffffffffffffffffffffffffffffffff16021790555081426200008691906200015e565b60028190555080426200009a91906200015e565b6003819055505050620001bb565b600080fd5b6000819050919050565b620000c281620000ad565b8114620000ce57600080fd5b50565b600081519050620000e281620000b7565b92915050565b60008060408385031215620001025762000101620000a8565b5b60006200011285828601620000d1565b92505060206200012585828601620000d1565b9150509250929050565b7f4e487b7100000000000000000000000000000000000000000000000000000000600052601160045260246000fd5b60006200016b82620000ad565b91506200017883620000ad565b9250827fffffffffffffffffffffffffffffffffffffffffffffffffffffffffffffffff03821115620001b057620001af6200012f565b5b828201905092915050565b610e8980620001cb6000396000f3fe60806040526004361061004a5760003560e01c806312065fe01461004f57806329be981e1461007a578063481c6a75146100965780635d495aea146100c1578063ab6c21ae146100ec575b600080fd5b34801561005b57600080fd5b50610064610115565b6040516100719190610898565b60405180910390f35b610094600480360381019061008f91906108f2565b6101ad565b005b3480156100a257600080fd5b506100ab610358565b6040516100b89190610960565b60405180910390f35b3480156100cd57600080fd5b506100d661037e565b6040516100e39190610960565b60405180910390f35b3480156100f857600080fd5b50610113600480360381019061010e91906109a7565b610716565b005b6000600160009054906101000a900473ffffffffffffffffffffffffffffffffffffffff1673ffffffffffffffffffffffffffffffffffffffff163373ffffffffffffffffffffffffffffffffffffffff16146101a7576040517f08c379a000000000000000000000000000000000000000000000000000000000815260040161019e90610a44565b60405180910390fd5b47905090565b6101b68161081e565b9050600254421180156101ca575060035442105b610209576040517f08c379a000000000000000000000000000000000000000000000000000000000815260040161020090610ab0565b60405180910390fd5b600073ffffffffffffffffffffffffffffffffffffffff166000808361ffff1661ffff16815260200190815260200160002060009054906101000a900473ffffffffffffffffffffffffffffffffffffffff1673ffffffffffffffffffffffffffffffffffffffff16146102b2576040517f08c379a00000000000000000000000000000000000000000000000000000000081526004016102a990610b1c565b60405180910390fd5b670de0b6b3a764000034146102fc576040517f08c379a00000000000000000000000000000000000000000000000000000000081526004016102f390610bae565b60405180910390fd5b336000808361ffff1661ffff16815260200190815260200160002060006101000a81548173ffffffffffffffffffffffffffffffffffffffff021916908373ffffffffffffffffffffffffffffffffffffffff16021790555050565b600160009054906101000a900473ffffffffffffffffffffffffffffffffffffffff1681565b600060035442116103c4576040517f08c379a00000000000000000000000000000000000000000000000000000000081526004016103bb90610c1a565b60405180910390fd5b600160009054906101000a900473ffffffffffffffffffffffffffffffffffffffff1673ffffffffffffffffffffffffffffffffffffffff163373ffffffffffffffffffffffffffffffffffffffff161461041e57600080fd5b670de0b6b3a764000047101561043357600080fd5b60008060199050600073ffffffffffffffffffffffffffffffffffffffff166000808361ffff1661ffff16815260200190815260200160002060009054906101000a900473ffffffffffffffffffffffffffffffffffffffff1673ffffffffffffffffffffffffffffffffffffffff16146104ea576000808261ffff1661ffff16815260200190815260200160002060009054906101000a900473ffffffffffffffffffffffffffffffffffffffff1691506106c0565b60005b600073ffffffffffffffffffffffffffffffffffffffff168373ffffffffffffffffffffffffffffffffffffffff1614156106be57600073ffffffffffffffffffffffffffffffffffffffff1660008083856105499190610c69565b61ffff1661ffff16815260200190815260200160002060009054906101000a900473ffffffffffffffffffffffffffffffffffffffff1673ffffffffffffffffffffffffffffffffffffffff16146105e85760008082846105aa9190610c69565b61ffff1661ffff16815260200190815260200160002060009054906101000a900473ffffffffffffffffffffffffffffffffffffffff1692506106ab565b600073ffffffffffffffffffffffffffffffffffffffff16600080838561060f9190610ca1565b61ffff1661ffff16815260200190815260200160002060009054906101000a900473ffffffffffffffffffffffffffffffffffffffff1673ffffffffffffffffffffffffffffffffffffffff16146106aa5760008082846106709190610ca1565b61ffff1661ffff16815260200190815260200160002060009054906101000a900473ffffffffffffffffffffffffffffffffffffffff1692505b5b80806106b690610cd5565b9150506104ed565b505b8173ffffffffffffffffffffffffffffffffffffffff166108fc6106e2610115565b9081150290604051600060405180830381858888f1935050505015801561070d573d6000803e3d6000fd5b50819250505090565b600160009054906101000a900473ffffffffffffffffffffffffffffffffffffffff1673ffffffffffffffffffffffffffffffffffffffff163373ffffffffffffffffffffffffffffffffffffffff16146107a6576040517f08c379a000000000000000000000000000000000000000000000000000000000815260040161079d90610a44565b60405180910390fd5b426003541080156107b75750600047145b6107f6576040517f08c379a00000000000000000000000000000000000000000000000000000000081526004016107ed90610d4c565b60405180910390fd5b81426108029190610d6c565b60028190555080426108149190610d6c565b6003819055505050565b6000805b6000600a846108319190610df1565b61ffff161461086857600a836108479190610e22565b816108529190610c69565b9050600a836108619190610df1565b9250610822565b82816108749190610c69565b905080915050919050565b6000819050919050565b6108928161087f565b82525050565b60006020820190506108ad6000830184610889565b92915050565b600080fd5b600061ffff82169050919050565b6108cf816108b8565b81146108da57600080fd5b50565b6000813590506108ec816108c6565b92915050565b600060208284031215610908576109076108b3565b5b6000610916848285016108dd565b91505092915050565b600073ffffffffffffffffffffffffffffffffffffffff82169050919050565b600061094a8261091f565b9050919050565b61095a8161093f565b82525050565b60006020820190506109756000830184610951565b92915050565b6109848161087f565b811461098f57600080fd5b50565b6000813590506109a18161097b565b92915050565b600080604083850312156109be576109bd6108b3565b5b60006109cc85828601610992565b92505060206109dd85828601610992565b9150509250929050565b600082825260208201905092915050565b7f4f6e6c6179204d616e616765722063616e206163636573732e00000000000000600082015250565b6000610a2e6019836109e7565b9150610a39826109f8565b602082019050919050565b60006020820190508181036000830152610a5d81610a21565b9050919050565b7f54696d65206572726f722e000000000000000000000000000000000000000000600082015250565b6000610a9a600b836109e7565b9150610aa582610a64565b602082019050919050565b60006020820190508181036000830152610ac981610a8d565b9050919050565b7f54686973206e756d62657220616c72656164792074616b656e00000000000000600082015250565b6000610b066019836109e7565b9150610b1182610ad0565b602082019050919050565b60006020820190508181036000830152610b3581610af9565b9050919050565b7f596f757220636f6e747269627574696f6e2073686f756c64206265203120457460008201527f6865720000000000000000000000000000000000000000000000000000000000602082015250565b6000610b986023836109e7565b9150610ba382610b3c565b604082019050919050565b60006020820190508181036000830152610bc781610b8b565b9050919050565b7f54696d65206973206e6f7420456e640000000000000000000000000000000000600082015250565b6000610c04600f836109e7565b9150610c0f82610bce565b602082019050919050565b60006020820190508181036000830152610c3381610bf7565b9050919050565b7f4e487b7100000000000000000000000000000000000000000000000000000000600052601160045260246000fd5b6000610c74826108b8565b9150610c7f836108b8565b92508261ffff03821115610c9657610c95610c3a565b5b828201905092915050565b6000610cac826108b8565b9150610cb7836108b8565b925082821015610cca57610cc9610c3a565b5b828203905092915050565b6000610ce0826108b8565b915061ffff821415610cf557610cf4610c3a565b5b600182019050919050565b7f43616e206e6f7420526573746172742e00000000000000000000000000000000600082015250565b6000610d366010836109e7565b9150610d4182610d00565b602082019050919050565b60006020820190508181036000830152610d6581610d29565b9050919050565b6000610d778261087f565b9150610d828361087f565b9250827fffffffffffffffffffffffffffffffffffffffffffffffffffffffffffffffff03821115610db757610db6610c3a565b5b828201905092915050565b7f4e487b7100000000000000000000000000000000000000000000000000000000600052601260045260246000fd5b6000610dfc826108b8565b9150610e07836108b8565b925082610e1757610e16610dc2565b5b828204905092915050565b6000610e2d826108b8565b9150610e38836108b8565b925082610e4857610e47610dc2565b5b82820690509291505056fea2646970667358221220be8af27f42cc7a262c8bbbbf40e2a572f4f9c01495a2acfd7de91278eabe3b9764736f6c634300080a0033",
  "immutableReferences": {},
  "source": "// SPDX-License-Identifier: GPL-3.0\r\n\r\npragma solidity ^0.8.0;\r\n\r\ncontract MyLottery\r\n{\r\n    mapping(uint16=> address payable) players;\r\n    address public manager;\r\n    uint startTime;\r\n    uint endTime;\r\n\r\n\r\n    constructor(uint _startTime, uint _endTime){\r\n        manager = msg.sender;\r\n        startTime = block.timestamp + _startTime;\r\n        endTime = block.timestamp + _endTime;\r\n    }\r\n\r\n    \r\n    function getSum(uint16 num) private pure returns(uint16)\r\n    {\r\n        uint16 result;\r\n         while(num/10 != 0)\r\n        {\r\n            result += num%10;\r\n            num = num/10;\r\n        }\r\n        result += num;\r\n        return result;\r\n    }\r\n\r\n    function startLottery(uint _startTime, uint _endTime) public\r\n    {\r\n        require(msg.sender == manager, \"Onlay Manager can access.\");\r\n        require(endTime < block.timestamp && address(this).balance == 0, \"Can not Restart.\");\r\n        startTime = block.timestamp + _startTime;\r\n        endTime = block.timestamp + _endTime;\r\n    }\r\n\r\n    function getLottery(uint16 _userGues) payable external{\r\n        _userGues = getSum(_userGues);\r\n        require(block.timestamp > startTime && block.timestamp < endTime, \"Time error.\");\r\n        require(players[_userGues]== address(0), \"This number already taken\");\r\n        require(msg.value == 1 ether, \"Your contribution should be 1 Ether\");\r\n        players[_userGues]= payable(msg.sender);\r\n    }\r\n\r\n    function getBalance() public view returns(uint){\r\n        require(msg.sender == manager, \"Onlay Manager can access.\");\r\n        return address(this).balance;\r\n    }\r\n\r\n\r\n    function pickWinner() public returns(address){\r\n        require(block.timestamp > endTime,\"Time is not End\");\r\n        require(msg.sender == manager);\r\n        require (address(this).balance >= 1 ether);\r\n        address payable winner;\r\n\r\n        uint16 index = 25;\r\n        if(players[index] != address(0)){\r\n            winner = players[index];\r\n        }\r\n        else{\r\n            uint16 i;\r\n            while(winner == address(0))\r\n            {\r\n                if(players[index+i] != address(0)){\r\n                    winner = players[index+i];\r\n                }else if(players[index-i] != address(0)){\r\n                    winner = players[index-i];\r\n                }\r\n                i++;\r\n            }\r\n        }\r\n        winner.transfer(getBalance());\r\n        return winner;\r\n        // players = newPlayer;\r\n    }\r\n}",
  "sourcePath": "C:\\Users\\Abdullah\\Desktop\\Task\\Frontend_Demo\\contracts\\MyLottery.sol",
  "compiler": {
    "name": "solc",
    "version": "0.8.10+commit.fc410830.Emscripten.clang"
  },
  "schemaVersion": "3.4.6",
  "updatedAt": "2022-03-11T17:58:49.890Z",
  "networkType": "ethereum",
  "devdoc": {
    "kind": "dev",
    "methods": {},
    "version": 1
  },
  "userdoc": {
    "kind": "user",
    "methods": {},
    "version": 1
  }
}