{
  "_format": "hh-sol-artifact-1",
  "contractName": "New",
  "sourceName": "contracts/New.sol",
  "abi": [
    {
      "anonymous": false,
      "inputs": [
        {
          "indexed": false,
          "internalType": "uint256",
          "name": "count",
          "type": "uint256"
        }
      ],
      "name": "Count",
      "type": "event"
    },
    {
      "anonymous": false,
      "inputs": [
        {
          "indexed": true,
          "internalType": "uint256",
          "name": "count",
          "type": "uint256"
        }
      ],
      "name": "CountInd",
      "type": "event"
    },
    {
      "inputs": [],
      "name": "count",
      "outputs": [
        {
          "internalType": "uint256",
          "name": "",
          "type": "uint256"
        }
      ],
      "stateMutability": "view",
      "type": "function"
    },
    {
      "inputs": [
        {
          "internalType": "uint256",
          "name": "x",
          "type": "uint256"
        }
      ],
      "name": "inc",
      "outputs": [
        {
          "internalType": "uint256",
          "name": "",
          "type": "uint256"
        }
      ],
      "stateMutability": "nonpayable",
      "type": "function"
    }
  ],
  "bytecode": "0x608060405234801561001057600080fd5b506101d2806100206000396000f3fe608060405234801561001057600080fd5b50600436106100365760003560e01c806306661abd1461003b578063812600df14610059575b600080fd5b610043610089565b6040516100509190610123565b60405180910390f35b610073600480360381019061006e919061016f565b61008f565b6040516100809190610123565b60405180910390f35b60005481565b6000816000819055507face32e4392fafee7f8245a5ae6a32722dc74442d018c52e460835648cbeeeba16000546040516100c99190610123565b60405180910390a16000547ffb9970d4c333cb1586c4419d24c6b9689a837cc1f9fbb54d4b23261a37fd970160405160405180910390a26000549050919050565b6000819050919050565b61011d8161010a565b82525050565b60006020820190506101386000830184610114565b92915050565b600080fd5b61014c8161010a565b811461015757600080fd5b50565b60008135905061016981610143565b92915050565b6000602082840312156101855761018461013e565b5b60006101938482850161015a565b9150509291505056fea2646970667358221220cea56687ffa56d04927f776af5d094c82a91a721d4d26b980d293ee35f92297864736f6c63430008110033",
  "linkReferences": {},
  "deployedLinkReferences": {}
}